{"abi":[{"type":"function","name":"disperseEth","inputs":[{"name":"recipients","type":"address[]","internalType":"address[]"}],"outputs":[],"stateMutability":"payable"},{"type":"function","name":"disperseTokens","inputs":[{"name":"tokenAddress","type":"address","internalType":"address"},{"name":"recipients","type":"address[]","internalType":"address[]"},{"name":"amount","type":"uint256","internalType":"uint256"}],"outputs":[],"stateMutability":"nonpayable"},{"type":"error","name":"INSUFFICIENT_ALLOWANCE","inputs":[]},{"type":"error","name":"INSUFFICIENT_BALANCE","inputs":[]},{"type":"error","name":"NO_ETH_SENT","inputs":[]},{"type":"error","name":"NO_RECIPIENTS","inputs":[]},{"type":"error","name":"NO_TOKENS_SENT","inputs":[]},{"type":"error","name":"TRANSFER_FAILED","inputs":[]}],"bytecode":{"object":"0x6080604052348015600f57600080fd5b506105948061001f6000396000f3fe6080604052600436106100295760003560e01c80634bc667731461002e578063ff8ca93014610050575b600080fd5b34801561003a57600080fd5b5061004e610049366004610439565b610063565b005b61004e61005e366004610493565b6102c4565b81600081900361008657604051632f8c1c0360e21b815260040160405180910390fd5b816000036100a75760405163d7eb47e360e01b815260040160405180910390fd5b6040516370a0823160e01b8152336004820152859083906001600160a01b038316906370a0823190602401602060405180830381865afa1580156100ef573d6000803e3d6000fd5b505050506040513d601f19601f8201168201806040525081019061011391906104d5565b101561013257604051632858f9ab60e11b815260040160405180910390fd5b604051636eb1769f60e11b815233600482015230602482015283906001600160a01b0383169063dd62ed3e90604401602060405180830381865afa15801561017e573d6000803e3d6000fd5b505050506040513d601f19601f820116820180604052508101906101a291906104d5565b10156101c157604051630fd3919360e01b815260040160405180910390fd5b60008284816101d2576101d26104ee565b04905060005b838110156102ba576000836001600160a01b03166323b872dd338a8a8681811061020457610204610504565b9050602002016020810190610219919061051a565b6040516001600160e01b031960e085901b1681526001600160a01b03928316600482015291166024820152604481018690526064016020604051808303816000875af115801561026d573d6000803e3d6000fd5b505050506040513d601f19601f82011682018060405250810190610291919061053c565b9050806102b157604051631fa55c0760e11b815260040160405180910390fd5b506001016101d8565b5050505050505050565b8060008190036102e757604051632f8c1c0360e21b815260040160405180910390fd5b346000036103085760405163d1b5cfef60e01b815260040160405180910390fd5b6000813481610319576103196104ee565b04905060005b828110156103ca57600085858381811061033b5761033b610504565b9050602002016020810190610350919061051a565b6001600160a01b03168360405160006040518083038185875af1925050503d806000811461039a576040519150601f19603f3d011682016040523d82523d6000602084013e61039f565b606091505b50509050806103c157604051631fa55c0760e11b815260040160405180910390fd5b5060010161031f565b5050505050565b80356001600160a01b03811681146103e857600080fd5b919050565b60008083601f8401126103ff57600080fd5b50813567ffffffffffffffff81111561041757600080fd5b6020830191508360208260051b850101111561043257600080fd5b9250929050565b6000806000806060858703121561044f57600080fd5b610458856103d1565b9350602085013567ffffffffffffffff81111561047457600080fd5b610480878288016103ed565b9598909750949560400135949350505050565b600080602083850312156104a657600080fd5b823567ffffffffffffffff8111156104bd57600080fd5b6104c9858286016103ed565b90969095509350505050565b6000602082840312156104e757600080fd5b5051919050565b634e487b7160e01b600052601260045260246000fd5b634e487b7160e01b600052603260045260246000fd5b60006020828403121561052c57600080fd5b610535826103d1565b9392505050565b60006020828403121561054e57600080fd5b8151801515811461053557600080fdfea2646970667358221220f640ab41b803a9723df29029bb1a469e22ec9cd18f388f042c3c569815c03a8464736f6c634300081a0033","linkReferences":{}},"methodIdentifiers":{"disperseEth(address[])":"ff8ca930","disperseTokens(address,address[],uint256)":"4bc66773"},"id":30}